:020000040800F2
:100000000050002069080008F9070008FF070008F1
:10001000050800080B08000811080008000000008F
:1000200000000000000000000000000017080008A9
:1000300023080008000000002F0800083B08000803
:10004000B1080008B1080008B1080008B1080008AC
:10005000B1080008B1080008B1080008B10800089C
:10006000B1080008B1080008B108000849080008F4
:10007000B1080008B1080008B1080008B10800087C
:10008000B1080008B1080008B1080008B10800086C
:10009000B1080008B1080008B1080008B10800085C
:1000A000B1080008B1080008B1080008B10800084C
:1000B000B1080008B1080008B1080008B10800083C
:1000C000B1080008B1080008B1080008B10800082C
:1000D000B1080008B1080008B1080008B10800081C
:1000E000B1080008B1080008B108000800000000CD
:1000F0000000000000000000000000000000000000
:0C01000000000000000000005FF808F1A3
:10010C0010B5054C237833B9044B13B10448AFF345
:10011C0000800123237010BD0C00002000000000A3
:10012C009821000808B5034B1BB103490348AFF3F2
:10013C00008008BD0000000010000020982100087D
:10014C0080B582B000AF03463960FB713B68DBB20F
:10015C001A464FF40071224801F030FAFB7903F093
:10016C000103DBB21A464FF480511D4801F026FA08
:10017C00FB795B08DBB203F00103DBB21A464FF4E8
:10018C000051174801F01AFAFB799B08DBB203F017
:10019C000103DBB21A464FF48041114801F00EFA0C
:1001AC00FB79DB08DBB203F00103DBB21A464FF438
:1001BC0000410B4801F002FA01224FF4006108489B
:1001CC0001F0FCF9052000F0D1FB00224FF4006196
:1001DC00034801F0F3F900BF0837BD4680BD00BFEE
:1001EC00000C014080B584B000AF0346FB71FB7975
:1001FC001B09FB73FB7B00211846FFF7A1FF0520B1
:10020C0000F0B4FBFB7903F00F03FB73FB7B0021C5
:10021C001846FFF795FF00BF1037BD4680BD80B56F
:10022C0084B000AF0346FB71FB791B09FB73FB7BAE
:10023C0001211846FFF784FF052000F097FBFB799E
:10024C0003F00F03FB73FB7B01211846FFF778FFCC
:10025C0000BF1037BD4680BD80B500AF0120FFF751
:10026C00C1FF022000F082FB00BF80BD80B582B0D0
:10027C0000AF786039607B68002B03D07B68012B62
:10028C0005D009E03B6843F080033B6004E03B6829
:10029C0043F0C0033B6000BF3B68DBB21846FFF77E
:1002AC00A1FF00BF0837BD4680BD80B500AF32202E
:1002BC0000F05CFB3320FFF795FF052000F056FBA8
:1002CC003220FFF78FFF0A2000F050FB2820FFF7A9
:1002DC0089FF052000F04AFB0120FFF783FF052072
:1002EC0000F044FB0C20FFF77DFF052000F03EFBE7
:1002FC000620FFF777FF00BF80BD80B582B000AF4E
:10030C00786006E07B685A1C7A601B781846FFF709
:10031C0086FF7B681B78002BF4D100BF00BF083729
:10032C00BD4680BD80B483B000AF7860034A7B6863
:10033C00136000BF0C37BD4680BC704728000020FE
:10034C0080B483B000AF7860034A7B68136000BF51
:10035C000C37BD4680BC70472C00002080B500AF28
:10036C0000F0A2FA00F01EF800F008F900F0E8F82E
:10037C0000F0BCF800F06CF80848FFF7D3FF074812
:10038C00FFF7DEFFFFF791FFFFF766FF002101206B
:10039C00FFF76CFF0248FFF7B0FFFEE730000020CC
:1003AC00B021000880B594B000AF07F128032822D3
:1003BC000021184601F0BEFE07F1140300221A605A
:1003CC005A609A60DA601A613B1D00221A605A600A
:1003DC009A60DA600223BB620123BB631023FB63C8
:1003EC0002237B640023BB644FF4A013FB6407F16E
:1003FC002803184601F0FAF80346002B01D000F050
:10040C0009F90F237B610223BB610023FB610023ED
:10041C003B6200237B6207F114030121184601F0B3
:10042C0067FB0346002B01D000F0F4F802237B603D
:10043C000023FB603B1D184601F0E8FC0346002B33
:10044C0001D000F0E7F800BF5037BD4680BD00007A
:10045C0080B584B000AF3B1D00221A605A609A60D0
:10046C00204B214A1A601F4B4FF480729A601D4B2F
:10047C0001221A731B4B00221A751A4B4FF460227F
:10048C00DA61184B00225A60164B02221A61154889
:10049C0000F090FA0346002B01D000F0BBF80123CA
:1004AC007B600123BB600023FB603B1D19460D489C
:1004BC0000F058FB0346002B01D000F0ABF80223F0
:1004CC007B600223BB603B1D1946064800F04AFBCB
:1004DC000346002B01D000F09DF800BF1037BD463D
:1004EC0080BD00BF300000200024014080B500AF6B
:1004FC00114B124A1A60104B4FF4E1325A600E4BFA
:10050C0000229A600C4B0022DA600B4B00221A611D
:10051C00094B0C225A61084B00229A61064B0022AF
:10052C00DA61054801F028FD0346002B01D000F0EC
:10053C0071F800BF80BD00BFA4000020003801404E
:10054C0080B582B000AF0C4B5B690B4A43F00103E2
:10055C005361094B5B6903F001037B607B680022EC
:10056C0000210B2000F00FFD0B2000F028FD00BF38
:10057C000837BD4680BD00BF0010024080B588B072
:10058C0000AF07F1100300221A605A609A60DA601B
:10059C001E4B9B691D4A43F0200393611B4B9B69C7
:1005AC0003F02003FB60FB68184B9B69174A43F070
:1005BC0004039361154B9B6903F00403BB60BB6898
:1005CC00124B9B69114A43F0080393610F4B9B69D3
:1005DC0003F008037B607B6800224FF47E410C48DB
:1005EC0000F0ECFF4FF47E433B6101237B61002361
:1005FC00BB610223FB6107F110031946044800F0AC
:10060C0059FE00BF2037BD4680BD00BF0010024020
:10061C00000C014080B400AF72B600BFFEE70000D2
:10062C0080B485B000AF154B9B69144A43F00103AD
:10063C009361124B9B6903F00103BB60BB680F4BCA
:10064C00DB690E4A43F08053D3610C4BDB6903F03A
:10065C0080537B607B680A4B5B68FB60FB6823F014
:10066C00E063FB60FB6843F00073FB60044AFB68CB
:10067C00536000BF1437BD4680BC70470010024069
:10068C000000014080B588B000AF786007F110031E
:10069C0000221A605A609A60DA607B681B68284AEC
:1006AC00934249D1274B9B69264A43F400739361CB
:1006BC00244B9B6903F40073FB60FB68214B9B6923
:1006CC00204A43F0040393611E4B9B6903F004031F
:1006DC00BB60BB6806233B6103237B6107F11003FE
:1006EC001946194800F0E6FD184B194A1A60174BC9
:1006FC0000225A60154B00229A60144B8022DA605B
:10070C00124B4FF400721A61104B4FF400625A6195
:10071C000E4B20229A610D4B0022DA610B4800F03F
:10072C0069FC0346002B01D0FFF774FF7B68074A76
:10073C001A62064A7B68536200BF2037BD4680BDF3
:10074C00002401400010024000080140600000201D
:10075C000800024080B588B000AF786007F1100344
:10076C0000221A605A609A60DA607B681B681C4A27
:10077C00934231D11B4B9B691A4A43F480439361DA
:10078C00184B9B6903F48043FB60FB68154B9B691A
:10079C00144A43F004039361124B9B6903F0040366
:1007AC00BB60BB684FF400733B6102237B61032386
:1007BC00FB6107F1100319460B4800F07BFD4FF469
:1007CC0080633B6100237B610023BB6107F1100355
:1007DC001946054800F06EFD00BF2037BD4680BDB0
:1007EC0000380140001002400008014080B400AF06
:1007FC00FEE780B400AFFEE780B400AFFEE780B444
:10080C0000AFFEE780B400AFFEE780B400AF00BFDE
:10081C00BD4680BC704780B400AF00BFBD4680BCF5
:10082C00704780B400AF00BFBD4680BC704780B538
:10083C0000AF00F07FF800BF80BD000080B500AFB6
:10084C00024800F031FC00BF80BD00BF60000020FA
:10085C0080B400AF00BFBD4680BC7047FFF7F8FF07
:10086C000B480C490C4A002302E0D458C450043302
:10087C00C4188C42F9D3094A094C002301E01360D7
:10088C000432A242FBD301F05DFCFFF767FD704719
:10089C00000000200C000020F42100080C000020B7
:1008AC00F0000020FEE7000080B500AF084B1B688D
:1008BC00074A43F010031360032000F059FB0F208C
:1008CC0000F008F8FFF7ACFE0023184680BD00BF0F
:1008DC000020024080B582B000AF7860124B1A68DD
:1008EC00124B1B7819464FF47A73B3FBF1F3B2FB3E
:1008FC00F3F3184600F071FB0346002B01D00123E3
:10090C000EE07B680F2B0AD8002279684FF0FF307D
:10091C0000F039FB064A7B681360002300E00123DA
:10092C0018460837BD4680BD000000200800002096
:10093C000400002080B400AF054B1B781A46054B11
:10094C001B681344034A136000BFBD4680BC70474C
:10095C0008000020EC00002080B400AF024B1B68A4
:10096C001846BD4680BC7047EC00002080B584B0B2
:10097C0000AF7860FFF7F0FFB8607B68FB60FB6846
:10098C00B3F1FF3F05D00A4B1B781A46FB681344A2
:10099C00FB6000BFFFF7E0FF0246BB68D31AFA68A2
:1009AC009A42F7D800BF00BF1037BD4680BD00BFCC
:1009BC000800002080B586B000AF78600023FB757E
:1009CC0000233B610023BB600023FB607B68002B92
:1009DC0001D10123BEE07B689B68002B7B689B6A7E
:1009EC00002B09D17B680022DA627B68002283F835
:1009FC0024207868FFF746FE786800F0ABF90346D0
:100A0C00FB757B689B6A03F01003002B40F0998008
:100A1C00FB7D002B40F095807B689B6A23F4885308
:100A2C0023F0020343F002027B689A627B685A68E7
:100A3C007B68DB691A437B681B7B5B001343BA68DA
:100A4C001343BB607B689B68B3F5807F03D07B68E6
:100A5C009B68012B02D14FF4807300E000233A69AC
:100A6C0013433B617B681B7D012B19D17B681B7B7E
:100A7C00002B09D17B689B69013B5A033B691343EB
:100A8C0043F400633B610BE07B689B6A43F02002FC
:100A9C007B689A627B68DB6A43F001027B68DA62EE
:100AAC007B681B685B6823F469417B681B683A6947
:100ABC000A435A607B681B689A68284B13407A6813
:100ACC001268B9680B4393607B689B68B3F5807FB1
:100ADC0003D07B689B68012B04D17B681B69013BAD
:100AEC001B05FB607B681B68DB6A23F470017B6869
:100AFC001B68FA680A43DA627B681B689A68184BB1
:100B0C001340BA689A420BD17B680022DA627B6888
:100B1C009B6A23F0030343F001027B689A6218E09E
:100B2C007B689B6A23F0120343F010027B689A6285
:100B3C007B68DB6A43F001027B68DA620123FB7598
:100B4C0007E07B689B6A43F010027B689A62012382
:100B5C00FB75FB7D18461837BD4680BDFDF7E1FFE0
:100B6C00FE0E1FFF80B485B000AF786039600023A3
:100B7C00FB730023BB607B6893F82430012B01D1FD
:100B8C000223DCE07B68012283F824203B685B684D
:100B9C00062B1CD87B681B68596B3B685A6813463C
:100BAC009B001344053B1F2202FA03F3DB4319405D
:100BBC003B6818683B685A6813469B001344053B16
:100BCC0000FA03F27B681B680A435A633CE03B68FB
:100BDC005B680C2B1CD87B681B68196B3B685A68CC
:100BEC0013469B001344233B1F2202FA03F3DB43FF
:100BFC0019403B6818683B685A6813469B001344BD
:100C0C00233B00FA03F27B681B680A431A631BE060
:100C1C007B681B68D96A3B685A6813469B0013446F
:100C2C00413B1F2202FA03F3DB4319403B6818686F
:100C3C003B685A6813469B001344413B00FA03F28D
:100C4C007B681B680A43DA623B681B68092B1CD95A
:100C5C007B681B68D9683B681A6813465B001344B1
:100C6C001E3B072202FA03F3DB4319403B689868EA
:100C7C003B681A6813465B0013441E3B00FA03F2F0
:100C8C007B681B680A43DA6019E07B681B6819698A
:100C9C003B681A6813465B001344072202FA03F3FD
:100CAC00DB4319403B6898683B681A6813465B0045
:100CBC00134400FA03F27B681B680A431A613B6811
:100CCC001B68102B03D03B681B68112B32D17B683F
:100CDC001B681D4A934225D17B681B689B6803F4F3
:100CEC000003002B26D17B681B689A687B681B6805
:100CFC0042F400029A603B681B68102B1AD1134B0C
:100D0C001B68134AA2FB03239A0C13469B00134443
:100D1C005B00BB6002E0BB68013BBB60BB68002BA7
:100D2C00F9D107E07B689B6A43F020027B689A62EA
:100D3C000123FB737B68002283F82420FB7B18467D
:100D4C001437BD4680BC70470024014000000020D1
:100D5C0083DE1B4380B584B000AF78600023FB605A
:100D6C007B681B689B6803F00103012B2ED17B6809
:100D7C001B689A687B681B6822F001029A60FFF777
:100D8C00EBFDF8601BE0FFF7E7FD0246FB68D31AAA
:100D9C00022B14D97B681B689B6803F00103012BA1
:100DAC000DD17B689B6A43F010027B689A627B686A
:100DBC00DB6A43F001027B68DA62012307E07B689F
:100DCC001B689B6803F00103012BDCD00023184641
:100DDC001037BD4680BD000080B485B000AF786090
:100DEC007B6803F00703FB600C4BDB68BB60BA68E5
:100DFC004FF6FF031340BB60FB681A02BB6813433A
:100E0C0043F0BF6343F40033BB60044ABB68D36058
:100E1C0000BF1437BD4680BC704700BF00ED00E03A
:100E2C0080B400AF044BDB681B0A03F007031846C1
:100E3C00BD4680BC704700BF00ED00E080B483B0BD
:100E4C0000AF0346FB7197F90730002B0BDBFB79E6
:100E5C0003F01F02064997F907305B09012000FADD
:100E6C0002F241F8232000BF0C37BD4680BC70470E
:100E7C0000E100E080B483B000AF03463960FB7141
:100E8C0097F90730002B0ADB3B68DAB20C4997F96B
:100E9C0007301201D2B20B4483F800230AE03B68FE
:100EAC00DAB20849FB7903F00F03043B1201D2B20A
:100EBC000B441A7600BF0C37BD4680BC704700BF90
:100ECC0000E100E000ED00E080B489B000AFF86014
:100EDC00B9607A60FB6803F00703FB61FB69C3F13F
:100EEC000703042B28BF0423BB61FB690433062BC7
:100EFC0002D9FB69033B00E000237B614FF0FF321A
:100F0C00BB6902FA03F3DA43BB681A407B699A4067
:100F1C004FF0FF317B6901FA03F3D9437B680B4037
:100F2C00134318462437BD4680BC704780B582B049
:100F3C0000AF78607B68013BB3F1807F01D3012364
:100F4C000FE00A4A7B68013B53600F214FF0FF30E2
:100F5C00FFF790FF054B00229A60044B07221A60A2
:100F6C00002318460837BD4680BD00BF10E000E0E6
:100F7C0080B582B000AF78607868FFF72DFF00BFB6
:100F8C000837BD4680BD80B586B000AF0346B9605A
:100F9C007A60FB7300237B61FFF742FF78617A680C
:100FAC00B9687869FFF790FF024697F90F30114640
:100FBC001846FFF75FFF00BF1837BD4680BD80B5F0
:100FCC0082B000AF0346FB7197F907301846FFF764
:100FDC0035FF00BF0837BD4680BD80B582B000AF7D
:100FEC0078607868FFF7A2FF034618460837BD46BD
:100FFC0080BD000080B485B000AF78600023FB603A
:10100C007B68002B01D1012343E07B681B681A46E7
:10101C00224B1344224AA2FB03231B099A007B6830
:10102C001A647B681F4ADA637B68022283F82120EA
:10103C007B681B681B68FB60FB6823F47F5323F001
:10104C003003FB607B685A687B689B681A437B683B
:10105C00DB681A437B681B691A437B685B691A431C
:10106C007B689B691A437B68DB691343FA681343FB
:10107C00FB607B681B68FA681A607B6800229A63C5
:10108C007B68012283F821207B68002283F82020D2
:10109C00002318461437BD4680BC7047F8FFFDBFCF
:1010AC00CDCCCCCC0000024080B584B000AF7860D1
:1010BC007B68DB6B1B68FB607B681B681B68BB6019
:1010CC007B681B6C04229A40FB681340002B4FD0AA
:1010DC00BB6803F00403002B4AD07B681B681B68B9
:1010EC0003F02003002B07D17B681B681A687B6810
:1010FC001B6822F004021A607B681B68664A9342E4
:10110C0029D07B681B68654A934222D07B681B6898
:10111C00634A93421AD07B681B68624A934212D08E
:10112C007B681B68604A93420AD07B681B685F4AE5
:10113C00934202D14FF480030EE04FF080630BE03A
:10114C004FF4802308E04FF4804305E04FF48063B4
:10115C0002E0402300E00423554A53607B68DB6ABD
:10116C00002B00F094807B68DB6A786898478EE0EF
:10117C007B681B6C02229A40FB681340002B56D0F4
:10118C00BB6803F00203002B51D07B681B681B6803
:10119C0003F02003002B0BD17B681B681A687B685B
:1011AC001B6822F00A021A607B68012283F8212056
:1011BC007B681B68384A934229D07B681B68374A86
:1011CC00934222D07B681B68354A93421AD07B68C5
:1011DC001B68344A934212D07B681B68324A934294
:1011EC000AD07B681B68314A934202D14FF400133A
:1011FC000EE04FF000730BE04FF4003308E04FF4B7
:10120C00005305E04FF4007302E0202300E00223BA
:10121C00274A53607B68002283F820207B689B6AF6
:10122C00002B34D07B689B6A786898472FE07B68EA
:10123C001B6C08229A40FB681340002B28D0BB681B
:10124C0003F00803002B23D07B681B681A687B68AB
:10125C001B6822F00E021A607B681A6C7B68DB6BD1
:10126C00012101FA02F25A607B6801229A637B68C1
:10127C00012283F821207B68002283F820207B68E0
:10128C001B6B002B04D07B681B6B7868984700BFE6
:10129C0000BF1037BD4680BD080002401C00024054
:1012AC003000024044000240580002406C000240F2
:1012BC000000024080B48BB000AF7860396000232E
:1012CC007B6200233B6269E101227B6A02FA03F331
:1012DC00FB613B681B68FA691340BB61BA69FB6927
:1012EC009A4240F058813B685B689A4A93425ED0C0
:1012FC00984A934275D8984A934258D0964A93424A
:10130C006FD8964A934252D0944A934269D8944AE1
:10131C0093424CD0924A934263D8924A934246D01D
:10132C00904A93425DD8122B2AD8122B59D801A27D
:10133C0052F823F0BB13000895130008A7130008FC
:10134C00E9130008EF130008EF130008EF1300086F
:10135C00EF130008EF130008EF130008EF13000859
:10136C00EF130008EF130008EF130008EF13000849
:10137C00EF130008EF1300089D130008B1130008C9
:10138C00794A934213D02CE03B68DB683B6229E03E
:10139C003B68DB6804333B6224E03B68DB68083362
:1013AC003B621FE03B68DB680C333B621AE03B6836
:1013BC009B68002B02D104233B6213E03B689B68C3
:1013CC00012B05D108233B627B68FA691A6109E09D
:1013DC0008233B627B68FA695A6103E000233B6295
:1013EC0000E000BFBB69FF2B01D87B6801E07B6884
:1013FC0004337B61BB69FF2B02D87B6A9B0002E044
:10140C007B6A083B9B003B617B691A680F213B6937
:10141C0001FA03F3DB431A40396A3B6901FA03F31F
:10142C001A437B691A603B685B6803F08053002B9E
:10143C0000F0B1804D4B9B694C4A43F00103936122
:10144C004A4B9B6903F00103BB60BB68484A7B6A4B
:10145C009B08023352F82330FB607B6A03F00303D2
:10146C009B000F2202FA03F3DB43FA681340FB6084
:10147C007B68404A934213D07B683F4A93420DD01D
:10148C007B683E4A934207D07B683D4A934201D128
:10149C00032306E0042304E0022302E0012300E01E
:1014AC0000237A6A02F0030292009340FA68134315
:1014BC00FB602F497B6A9B080233FA6841F82320B2
:1014CC003B685B6803F48013002B06D02D4B9A68A5
:1014DC002C49BB6913438B6006E02A4B9A68BB69A5
:1014EC00DB43284913408B603B685B6803F40013B3
:1014FC00002B06D0234BDA682249BB691343CB601F
:10150C0006E0204BDA68BB69DB431E491340CB6015
:10151C003B685B6803F40033002B06D0194B5A6808
:10152C001849BB6913434B6006E0164B5A68BB69FC
:10153C00DB43144913404B603B685B6803F4803316
:10154C00002B21D00F4B1A680E49BB6913430B605B
:10155C0021E000BF0000321000003110000022100A
:10156C0000002110000012100000111000100240A9
:10157C000000014000080140000C01400010014037
:10158C0000140140000401400B4B1A68BB69DB439B
:10159C00094913400B607B6A01337B623B681A6814
:1015AC007B6A22FA03F3002B7FF48EAE00BF00BFE0
:1015BC002C37BD4680BC70470004014080B483B01A
:1015CC0000AF78600B467B8013467B707B78002BDA
:1015DC0003D07A887B681A6103E07B881A047B68E5
:1015EC001A6100BF0C37BD4680BC704780B586B011
:1015FC0000AF78607B68002B01D1012372E27B681D
:10160C001B6803F00103002B00F08780924B5B6892
:10161C0003F00C03042B0CD08F4B5B6803F00C0312
:10162C00082B12D18C4B5B6803F48033B3F5803FED
:10163C000BD1894B1B6803F40033002B6CD07B68F7
:10164C005B68002B68D101234CE27B685B68B3F5C7
:10165C00803F06D1804B1B687F4A43F48033136074
:10166C002EE07B685B68002B0CD17B4B1B687A4AA5
:10167C0023F480331360784B1B68774A23F4802360
:10168C0013601DE07B685B68B3F5A02F0CD1724B27
:10169C001B68714A43F4802313606F4B1B686E4ABE
:1016AC0043F4803313600BE06B4B1B686A4A23F4E2
:1016BC0080331360684B1B68674A23F480231360E4
:1016CC007B685B68002B13D0FFF746F9386108E0A4
:1016DC00FFF742F902463B69D31A642B01D9032365
:1016EC0000E25D4B1B6803F40033002BF0D014E0D8
:1016FC00FFF732F9386108E0FFF72EF902463B6933
:10170C00D31A642B01D90323ECE1534B1B6803F46C
:10171C000033002BF0D100E000BF7B681B6803F0A6
:10172C000203002B63D04C4B5B6803F00C03002BC3
:10173C000BD0494B5B6803F00C03082B1CD1464BB8
:10174C005B6803F48033002B16D1434B1B6803F00A
:10175C000203002B05D07B681B69012B01D00123F0
:10176C00C0E13D4B1B6823F0F8027B685B69DB0032
:10177C00394913430B603AE07B681B69002B20D07E
:10178C00364B01221A60FFF7E7F8386108E0FFF7E3
:10179C00E3F802463B69D31A022B01D90323A1E1DA
:1017AC002D4B1B6803F00203002BF0D02A4B1B6857
:1017BC0023F0F8027B685B69DB00274913430B605D
:1017CC0015E0264B00221A60FFF7C6F8386108E0D6
:1017DC00FFF7C2F802463B69D31A022B01D9032347
:1017EC0080E11D4B1B6803F00203002BF0D17B68DA
:1017FC001B6803F00803002B3AD07B689B69002B15
:10180C0019D0174B01221A60FFF7A6F8386108E0CF
:10181C00FFF7A2F802463B69D31A022B01D9032326
:10182C0060E10D4B5B6A03F00203002BF0D001204A
:10183C0000F0CEFA1CE00A4B00221A60FFF78CF87D
:10184C0038610FE0FFF788F802463B69D31A022B88
:10185C0008D9032346E100BF0010024000004242B9
:10186C0080044242924B5B6A03F00203002BE9D1E5
:10187C007B681B6803F00403002B00F0A680002398
:10188C00FB758B4BDB6903F08053002B0DD1884B20
:10189C00DB69874A43F08053D361854BDB6903F0E6
:1018AC008053BB60BB680123FB75824B1B6803F440
:1018BC008073002B18D17F4B1B687E4A43F48073D6
:1018CC001360FFF749F8386108E0FFF745F8024666
:1018DC003B69D31A642B01D9032303E1754B1B68B5
:1018EC0003F48073002BF0D07B68DB68012B06D1EE
:1018FC006F4B1B6A6E4A43F0010313622DE07B6849
:10190C00DB68002B0CD16A4B1B6A694A23F001037C
:10191C001362674B1B6A664A23F0040313621CE0D4
:10192C007B68DB68052B0CD1614B1B6A604A43F06A
:10193C00040313625E4B1B6A5D4A43F0010313629E
:10194C000BE05B4B1B6A5A4A23F001031362584BA2
:10195C001B6A574A23F0040313627B68DB68002B75
:10196C0015D0FEF7F9FF38610AE0FEF7F5FF0246E5
:10197C003B69D31A41F28832934201D90323B1E077
:10198C004B4B1B6A03F00203002BEED014E0FEF766
:10199C00E3FF38610AE0FEF7DFFF02463B69D31A2A
:1019AC0041F28832934201D903239BE0404B1B6ADE
:1019BC0003F00203002BEED1FB7D012B05D13C4B38
:1019CC00DB693B4A23F08053D3617B68DB69002BD6
:1019DC0000F08780364B5B6803F00C03082B61D05A
:1019EC007B68DB69022B46D1334B00221A60FEF771
:1019FC00B3FF386108E0FEF7AFFF02463B69D31A2C
:101A0C00022B01D903236DE0294B1B6803F00073F3
:101A1C00002BF0D17B681B6AB3F5803F08D1244BB7
:101A2C005B6823F400327B689B68214913434B604D
:101A3C001F4B5B6823F474127B68196A7B685B6AC2
:101A4C000B431B4913434B601B4B01221A60FEF7DF
:101A5C0083FF386108E0FEF77FFF02463B69D31A2B
:101A6C00022B01D903233DE0114B1B6803F00073DB
:101A7C00002BF0D035E0104B00221A60FEF76CFF03
:101A8C00386108E0FEF768FF02463B69D31A022B67
:101A9C0001D9032326E0064B1B6803F00073002BCF
:101AAC00F0D11EE07B68DB69012B07D1012319E023
:101ABC000010024000700040600042420B4B5B681B
:101ACC00FB60FB6803F480327B681B6A9A4206D188
:101ADC00FB6803F470127B685B6A9A4201D00123A5
:101AEC0000E0002318461837BD4680BD00100240A8
:101AFC0080B584B000AF786039607B68002B01D171
:101B0C000123D0E06A4B1B6803F007033A689A4242
:101B1C0010D9674B1B6823F0070265493B681343D8
:101B2C000B60634B1B6803F007033A689A4201D0C1
:101B3C000123B8E07B681B6803F00203002B20D064
:101B4C007B681B6803F00403002B05D0594B5B68C2
:101B5C00584A43F4E06353607B681B6803F0080346
:101B6C00002B05D0534B5B68524A43F460535360CF
:101B7C00504B5B6823F0F0027B689B684D49134324
:101B8C004B607B681B6803F00103002B40D07B6823
:101B9C005B68012B07D1474B1B6803F40033002B08
:101BAC0015D101237FE07B685B68022B07D1414B89
:101BBC001B6803F00073002B09D1012373E03D4B2C
:101BCC001B6803F00203002B01D101236BE0394B9E
:101BDC005B6823F003027B685B68364913434B60F8
:101BEC00FEF7BAFEF8600AE0FEF7B6FE0246FB68A6
:101BFC00D31A41F28832934201D9032353E02D4B7F
:101C0C005B6803F00C027B685B689B009A42EBD12B
:101C1C00274B1B6803F007033A689A4210D2244BF7
:101C2C001B6823F0070222493B6813430B60204BCF
:101C3C001B6803F007033A689A4201D0012332E093
:101C4C007B681B6803F00403002B08D0194B5B68FE
:101C5C0023F4E0627B68DB68164913434B607B68B6
:101C6C001B6803F00803002B09D0124B5B6823F4AC
:101C7C0060527B681B69DB000E4913434B6000F01C
:101C8C0021F802460B4B5B681B0903F00F030A4952
:101C9C00CB5C22FA03F3094A1360094B1B68184604
:101CAC00FEF718FE002318461037BD4680BD00BF56
:101CBC000020024000100240C0210008000000205B
:101CCC000400002080B487B000AF0023FB60002329
:101CDC00BB6000237B6100237B6000233B611E4BB8
:101CEC005B68FB60FB6803F00C03042B02D0082B31
:101CFC0003D027E0194B3B6127E0FB689B0C03F0FA
:101D0C000F03174AD35C7B60FB6803F48033002B12
:101D1C0010D0114B5B685B0C03F00103114AD35CD0
:101D2C00BB607B680D4A03FB02F2BB68B2FBF3F3AA
:101D3C007B6104E07B680C4A02FB03F37B617B69EB
:101D4C003B6102E0054B3B6100BF3B6918461C3709
:101D5C00BD4680BC704700BF0010024000127A00E4
:101D6C00D8210008E821000800093D0080B400AF2C
:101D7C00024B1B681846BD4680BC70470000002013
:101D8C0080B500AFFFF7F2FF0246054B5B681B0AFC
:101D9C0003F007030349CB5C22FA03F3184680BD1A
:101DAC0000100240D021000880B500AFFFF7DEFF25
:101DBC000246054B5B68DB0A03F007030349CB5C67
:101DCC0022FA03F3184680BD00100240D02100080F
:101DDC0080B485B000AF78600A4B1B680A4AA2FB3E
:101DEC0003235B0A7A6802FB03F3FB6000BFFB680A
:101DFC005A1EFA60002BF9D100BF00BF1437BD4644
:101E0C0080BC704700000020D34D621080B586B0B6
:101E1C0000AF786000233B610023FB607B681B688C
:101E2C0003F00103002B7DD00023FB754F4BDB69C6
:101E3C0003F08053002B0DD14C4BDB694B4A43F024
:101E4C008053D361494BDB6903F08053BB60BB68A3
:101E5C000123FB75464B1B6803F48073002B18D1D0
:101E6C00434B1B68424A43F480731360FEF774FDC6
:101E7C00386108E0FEF770FD02463B69D31A642B0B
:101E8C0001D903236DE03A4B1B6803F48073002BDC
:101E9C00F0D0364B1B6A03F44073FB60FB68002BDD
:101EAC002ED07B685B6803F44073FA689A4227D0A3
:101EBC002E4B1B6A23F44073FB602E4B01221A60DD
:101ECC002C4B00221A60294AFB681362FB6803F052
:101EDC000103002B14D0FEF73FFD38610AE0FEF73A
:101EEC003BFD02463B69D31A41F28832934201D939
:101EFC00032336E01D4B1B6A03F00203002BEED0CC
:101F0C001A4B1B6A23F440727B685B6817491343B6
:101F1C000B62FB7D012B05D1144BDB69134A23F0BB
:101F2C008053D3617B681B6803F00203002B08D03D
:101F3C000E4B5B6823F440427B689B680B49134350
:101F4C004B607B681B6803F01003002B08D0074B19
:101F5C005B6823F480027B68DB68044913434B60A5
:101F6C00002318461837BD4680BD00BF0010024044
:101F7C00007000404004424280B582B000AF7860EF
:101F8C007B68002B01D1012342E07B6893F8413040
:101F9C00DBB2002B06D17B68002283F840207868E6
:101FAC00FEF7D8FB7B68242283F841207B681B68F2
:101FBC00DA687B681B6822F40052DA60786800F0FB
:101FCC002BF87B681B681A697B681B6822F49042AB
:101FDC001A617B681B685A697B681B6822F02A02AD
:101FEC005A617B681B68DA687B681B6842F4005294
:101FFC00DA607B6800225A647B68202283F84120D7
:10200C007B68202283F842207B6800225A630023DD
:10201C0018460837BD4680BD80B584B000AF7860E7
:10202C007B681B681B6923F440517B68DA687B680A
:10203C001B680A431A617B689A687B681B691A43A0
:10204C007B685B691343BB607B681B68DB6823F4AC
:10205C00B05323F00C037A681268B9680B43D36051
:10206C007B681B685B6923F440717B689A697B68A9
:10207C001B680A435A617B681B682C4A934203D144
:10208C00FFF792FEF86002E0FFF77AFEF860FA685C
:10209C0013469B0013449A001A447B685B689B00B0
:1020AC00B2FBF3F3224AA2FB03235B091901FA6882
:1020BC0013469B0013449A001A447B685B689B0090
:1020CC00B2FBF3F21A4BA3FB02035B09642000FB87
:1020DC0003F3D31A1B013233154AA2FB03235B090A
:1020EC0003F0F0031944FA6813469B0013449A005A
:1020FC001A447B685B689B00B2FBF3F20C4BA3FBAE
:10210C0002035B09642000FB03F3D31A1B01323377
:10211C00074AA2FB03235B0903F00F027B681B68D1
:10212C000A449A6000BF1037BD4680BD003801409C
:10213C001F85EB5103460244934200D1704703F8CC
:10214C00011BF9E770B500260C4D0D4C641BA41057
:10215C00A64209D100F01AF800260A4D0A4C641B5D
:10216C00A410A64205D170BD55F8043B9847013622
:10217C00EEE755F8043B98470136F2E7EC210008EE
:10218C00EC210008EC210008F0210008F8B500BF94
:10219C00F8BC08BC9E467047F8B500BFF8BC08BC3C
:0421AC009E46704794
:1021B00048656C6C6F20576F726C642100000000E2
:1021C00000000000000000000102030406070809E7
:1021D00000000000010203040203040506070809C9
:0C21E0000A0B0C0D0E0F10100102000085
:0421EC0031010008B5
:0421F0000D010008D5
:0C21F4000024F4001000000001000000B6
:04000005080008697E
:00000001FF
