:020000040800F2
:100000000050002075070008190700081F070008A6
:10001000250700082B070008310700080000000032
:10002000000000000000000000000000370700088A
:1000300043070008000000004F0700085B070008A6
:10004000BD070008BD070008BD070008BD07000880
:10005000BD070008BD070008BD070008BD07000870
:10006000BD070008BD070008BD070008BD07000860
:10007000BD070008BD070008BD070008BD07000850
:10008000BD070008BD070008BD070008BD07000840
:10009000BD070008BD070008BD070008BD07000830
:1000A000BD070008BD070008BD070008BD07000820
:1000B000BD070008BD070008BD070008BD07000810
:1000C000BD070008BD070008BD070008BD07000800
:1000D000BD070008BD070008BD070008BD070008F0
:1000E000BD070008BD070008BD07000800000000AC
:1000F0000000000000000000000000000000000000
:0C01000000000000000000005FF808F1A3
:10010C0010B5054C237833B9044B13B10448AFF345
:10011C0000800123237010BD0C00002000000000A3
:10012C00901D000808B5034B1BB103490348AFF3FE
:10013C00008008BD0000000010000020901D000889
:10014C0080B582B000AF03463960FB713B68DBB20F
:10015C001A464FF40071204801F02CF8FB7903F09B
:10016C000103DBB21A464FF480511B4801F022F810
:10017C00FB795B08DBB203F00103DBB21A464FF4E8
:10018C000051154801F016F8FB799B08DBB203F01F
:10019C000103DBB21A464FF480410F4801F00AF814
:1001AC00FB79DB08DBB203F00103DBB21A464FF438
:1001BC000041094800F0FEFF01224FF4006106489F
:1001CC0000F0F8FF00224FF40061034800F0F2FF4A
:1001DC0000BF0837BD4680BD000C014080B584B01F
:1001EC0000AF0346FB71FB791B09FB73FB7B002102
:1001FC001846FFF7A5FF052000F03EFBFB7903F046
:10020C000F03FB73FB7B00211846FFF799FF00BF20
:10021C001037BD4680BD80B584B000AF0346FB717E
:10022C00FB791B09FB73FB7B01211846FFF788FF49
:10023C00FB7903F00F03FB73FB7B01211846FFF7DF
:10024C007FFF00BF1037BD4680BD80B500AF0120D9
:10025C00FFF7C4FF022000F00FFB00BF80BD80B58C
:10026C0082B000AF786039607B68002B03D07B686C
:10027C00012B05D009E03B6843F080033B6004E0B0
:10028C003B6843F0C0033B6000BF3B68DBB21846E1
:10029C00FFF7A4FF00BF0837BD4680BD80B500AF97
:1002AC00322000F0E9FA3320FFF798FF052000F028
:1002BC00E3FA3220FFF792FF0A2000F0DDFA282043
:1002CC00FFF78CFF052000F0D7FA0120FFF786FF1F
:1002DC00052000F0D1FA0C20FFF780FF052000F07C
:1002EC00CBFA0620FFF77AFF00BF80BD80B582B045
:1002FC0000AF786006E07B685A1C7A601B78184661
:10030C00FFF789FF7B681B78002BF4D100BF00BF7F
:10031C000837BD4680BD000080B483B000AF786064
:10032C00034A7B68136000BF0C37BD4680BC704726
:10033C002800002080B483B000AF7860034A7B684B
:10034C00136000BF0C37BD4680BC70472C000020EA
:10035C0080B500AF00F02EFA00F020F800F0D6F8CF
:10036C0000F0AAF800F06AF80A48FFF7D5FF094830
:10037C00FFF7E0FFFFF792FFFFF767FF0021002078
:10038C00FFF76DFF0448FFF7B1FF4FF4FA6000F080
:10039C0073FAF1E730000020A81D000880B594B076
:1003AC0000AF07F1280328220021184601F0BEFCFB
:1003BC0007F1140300221A605A609A60DA601A611D
:1003CC003B1D00221A605A609A60DA600223BB62FD
:1003DC000123BB631023FB6300237B6407F1280319
:1003EC00184600F0FFFE0346002B01D000F0CEF8BB
:1003FC000F237B610023BB610023FB6100233B6265
:10040C0000237B6207F114030021184601F06CF9FC
:10041C000346002B01D000F0B9F802237B600023C7
:10042C00FB603B1D184601F0EDFA0346002B01D092
:10043C0000F0ACF800BF5037BD4680BD80B584B02D
:10044C0000AF3B1D00221A605A609A60184B194A83
:10045C001A60174B00229A60154B00221A73144B2A
:10046C0000221A75124B4FF46022DA61104B0022F5
:10047C005A600F4B01221A610D4800F021FA034615
:10048C00002B01D000F082F801237B600123BB60BC
:10049C000023FB603B1D1946054800F0E9FA0346B2
:1004AC00002B01D000F072F800BF1037BD4680BDA4
:1004BC00300000200024014080B500AF114B124ADF
:1004CC001A60104B4FF4E1325A600E4B00229A60C6
:1004DC000C4B0022DA600B4B00221A61094B0C22E8
:1004EC005A61084B00229A61064B0022DA610548DA
:1004FC0001F03EFB0346002B01D000F047F800BF93
:10050C0080BD00BF600000200038014080B586B07F
:10051C0000AF07F1080300221A605A609A60DA6093
:10052C00184B9B69174A43F004039361154B9B6965
:10053C0003F004037B607B68124B9B69114A43F008
:10054C00080393610F4B9B6903F008033B603B6806
:10055C0000224FF47E410C4800F02CFE4FF47E43F9
:10056C00BB600123FB6000233B6102237B6107F12D
:10057C0008031946044800F099FC00BF1837BD4623
:10058C0080BD00BF00100240000C014080B400AFE1
:10059C0072B600BFFEE7000080B485B000AF154B0B
:1005AC009B69144A43F001039361124B9B6903F05E
:1005BC000103BB60BB680F4BDB690E4A43F08053F1
:1005CC00D3610C4BDB6903F080537B607B680A4B77
:1005DC005B68FB60FB6823F0E063FB60FB6843F047
:1005EC000073FB60044AFB68536000BF1437BD46C0
:1005FC0080BC7047001002400000014080B588B0FC
:10060C0000AF786007F1100300221A605A609A60FC
:10061C00DA607B681B68144A934221D1134B9B69A7
:10062C00124A43F400739361104B9B6903F40073FB
:10063C00FB60FB680D4B9B690C4A43F00403936110
:10064C000A4B9B6903F00403BB60BB6806233B6148
:10065C0003237B6107F110031946054800F026FCC3
:10066C0000BF2037BD4680BD002401400010024071
:10067C000008014080B588B000AF786007F1100326
:10068C0000221A605A609A60DA607B681B681C4A08
:10069C00934231D11B4B9B691A4A43F480439361BB
:1006AC00184B9B6903F48043FB60FB68154B9B69FB
:1006BC00144A43F004039361124B9B6903F0040347
:1006CC00BB60BB684FF400733B6102237B61032367
:1006DC00FB6107F1100319460B4800F0E7FB4FF4E0
:1006EC0080633B6100237B610023BB6107F1100336
:1006FC001946054800F0DAFB00BF2037BD4680BD27
:10070C0000380140001002400008014080B400AFE6
:10071C00FEE780B400AFFEE780B400AFFEE780B424
:10072C0000AFFEE780B400AFFEE780B400AF00BFBF
:10073C00BD4680BC704780B400AF00BFBD4680BCD6
:10074C00704780B400AF00BFBD4680BC704780B519
:10075C0000AF00F075F800BF80BD80B400AF00BFE3
:10076C00BD4680BC70470000FFF7F7FF0B480C49F3
:10077C000C4A002302E0D458C4500433C4188C42F1
:10078C00F9D3094A094C002301E013600432A24258
:10079C00FBD301F0D3FAFFF7DBFD7047000000201C
:1007AC000C000020E41D00080C000020AC00002010
:1007BC00FEE7000080B500AF084B1B68074A43F00A
:1007CC0010031360032000F03DFB0F2000F008F82D
:1007DC00FFF7E2FE0023184680BD00BF0020024058
:1007EC0080B582B000AF7860124B1A68124B1B7840
:1007FC0019464FF47A73B3FBF1F3B2FBF3F31846DB
:10080C0000F047FB0346002B01D001230EE07B6870
:10081C000F2B0AD8002279684FF0FF3000F01DFB37
:10082C00064A7B681360002300E001231846083752
:10083C00BD4680BD00000020080000200400002000
:10084C0080B400AF054B1B781A46054B1B6813444C
:10085C00034A136000BFBD4680BC704708000020EF
:10086C00A800002080B400AF024B1B681846BD46A0
:10087C0080BC7047A800002080B584B000AF7860C1
:10088C00FFF7F0FFB8607B68FB60FB68B3F1FF3FDC
:10089C0005D00A4B1B781A46FB681344FB6000BF5B
:1008AC00FFF7E0FF0246BB68D31AFA689A42F7D802
:1008BC0000BF00BF1037BD4680BD00BF0800002040
:1008CC0080B586B000AF78600023FB7500233B61D8
:1008DC000023BB600023FB607B68002B01D101234C
:1008EC00BEE07B689B68002B7B689B6A002B09D160
:1008FC007B680022DA627B68002283F82420786807
:10090C00FFF77CFE786800F0ABF90346FB757B685B
:10091C009B6A03F01003002B40F09980FB7D002BA9
:10092C0040F095807B689B6A23F4885323F0020384
:10093C0043F002027B689A627B685A687B68DB69C9
:10094C001A437B681B7B5B001343BA681343BB6081
:10095C007B689B68B3F5807F03D07B689B68012B19
:10096C0002D14FF4807300E000233A6913433B61DA
:10097C007B681B7D012B19D17B681B7B002B09D15C
:10098C007B689B69013B5A033B69134343F4006347
:10099C003B610BE07B689B6A43F020027B689A62A8
:1009AC007B68DB6A43F001027B68DA627B681B6858
:1009BC005B6823F469417B681B683A690A435A6097
:1009CC007B681B689A68284B13407A681268B96870
:1009DC000B4393607B689B68B3F5807F03D07B6887
:1009EC009B68012B04D17B681B69013B1B05FB60D9
:1009FC007B681B68DB6A23F470017B681B68FA68F0
:100A0C000A43DA627B681B689A68184B1340BA6811
:100A1C009A420BD17B680022DA627B689B6A23F0D6
:100A2C00030343F001027B689A6218E07B689B6ABF
:100A3C0023F0120343F010027B689A627B68DB6A36
:100A4C0043F001027B68DA620123FB7507E07B68E7
:100A5C009B6A43F010027B689A620123FB75FB7D55
:100A6C0018461837BD4680BDFDF7E1FFFE0E1FFF8F
:100A7C0080B485B000AF786039600023FB7300232D
:100A8C00BB607B6893F82430012B01D10223DCE09E
:100A9C007B68012283F824203B685B68062B1CD8FA
:100AAC007B681B68596B3B685A6813469B00134460
:100ABC00053B1F2202FA03F3DB4319403B6818681D
:100ACC003B685A6813469B001344053B00FA03F23B
:100ADC007B681B680A435A633CE03B685B680C2BE1
:100AEC001CD87B681B68196B3B685A6813469B00C3
:100AFC001344233B1F2202FA03F3DB4319403B68E8
:100B0C0018683B685A6813469B001344233B00FA51
:100B1C0003F27B681B680A431A631BE07B681B6843
:100B2C00D96A3B685A6813469B001344413B1F2209
:100B3C0002FA03F3DB4319403B6818683B685A68B8
:100B4C0013469B001344413B00FA03F27B681B687D
:100B5C000A43DA623B681B68092B1CD97B681B684B
:100B6C00D9683B681A6813465B0013441E3B072286
:100B7C0002FA03F3DB4319403B6898683B681A6838
:100B8C0013465B0013441E3B00FA03F27B681B68A0
:100B9C000A43DA6019E07B681B6819693B681A68BC
:100BAC0013465B001344072202FA03F3DB4319409C
:100BBC003B6898683B681A6813465B00134400FA5C
:100BCC0003F27B681B680A431A613B681B68102B95
:100BDC0003D03B681B68112B32D17B681B681D4A04
:100BEC00934225D17B681B689B6803F40003002BA0
:100BFC0026D17B681B689A687B681B6842F40002EC
:100C0C009A603B681B68102B1AD1134B1B68134A54
:100C1C00A2FB03239A0C13469B0013445B00BB609E
:100C2C0002E0BB68013BBB60BB68002BF9D107E05D
:100C3C007B689B6A43F020027B689A620123FB73FA
:100C4C007B68002283F82420FB7B18461437BD46B2
:100C5C0080BC7047002401400000002083DE1B4351
:100C6C0080B584B000AF78600023FB607B681B68A4
:100C7C009B6803F00103012B2ED17B681B689A68DB
:100C8C007B681B6822F001029A60FFF7EBFDF860AD
:100C9C001BE0FFF7E7FD0246FB68D31A022B14D9C1
:100CAC007B681B689B6803F00103012B0DD17B68EB
:100CBC009B6A43F010027B689A627B68DB6A43F0A4
:100CCC0001027B68DA62012307E07B681B689B6882
:100CDC0003F00103012BDCD0002318461037BD466E
:100CEC0080BD000080B485B000AF78607B6803F0F5
:100CFC000703FB600C4BDB68BB60BA684FF6FF0365
:100D0C001340BB60FB681A02BB68134343F0BF631C
:100D1C0043F40033BB60044ABB68D36000BF143794
:100D2C00BD4680BC704700BF00ED00E080B400AF52
:100D3C00044BDB681B0A03F007031846BD4680BC56
:100D4C00704700BF00ED00E080B483B000AF0346F5
:100D5C003960FB7197F90730002B0ADB3B68DAB27C
:100D6C000C4997F907301201D2B20B4483F80023D7
:100D7C000AE03B68DAB20849FB7903F00F03043B45
:100D8C001201D2B20B441A7600BF0C37BD4680BCA0
:100D9C00704700BF00E100E000ED00E080B489B0D6
:100DAC0000AFF860B9607A60FB6803F00703FB6181
:100DBC00FB69C3F10703042B28BF0423BB61FB6948
:100DCC000433062B02D9FB69033B00E000237B6153
:100DDC004FF0FF32BB6902FA03F3DA43BB681A40E7
:100DEC007B699A404FF0FF317B6901FA03F3D943D9
:100DFC007B680B40134318462437BD4680BC7047B4
:100E0C0080B582B000AF78607B68013BB3F1807F26
:100E1C0001D301230FE00A4A7B68013B53600F2189
:100E2C004FF0FF30FFF790FF054B00229A60044B08
:100E3C0007221A60002318460837BD4680BD00BF44
:100E4C0010E000E080B582B000AF78607868FFF702
:100E5C0049FF00BF0837BD4680BD80B586B000AFE6
:100E6C000346B9607A60FB7300237B61FFF75EFF7A
:100E7C0078617A68B9687869FFF790FF024697F94C
:100E8C000F3011461846FFF75FFF00BF1837BD46FD
:100E9C0080BD80B582B000AF78607868FFF7B0FF96
:100EAC00034618460837BD4680BD000080B48BB0A1
:100EBC0000AF7860396000237B6200233B6269E1FC
:100ECC0001227B6A02FA03F3FB613B681B68FA6937
:100EDC001340BB61BA69FB699A4240F058813B6888
:100EEC005B689A4A93425ED0984A934275D8984A66
:100EFC00934258D0964A93426FD8964A934252D016
:100F0C00944A934269D8944A93424CD0924A934261
:100F1C0063D8924A934246D0904A93425DD8122BA2
:100F2C002AD8122B59D801A252F823F0B30F00087B
:100F3C008D0F00089F0F0008E10F0008E70F000855
:100F4C00E70F0008E70F0008E70F0008E70F00089D
:100F5C00E70F0008E70F0008E70F0008E70F00088D
:100F6C00E70F0008E70F0008E70F0008E70F00087D
:100F7C00950F0008A90F0008794A934213D02CE072
:100F8C003B68DB683B6229E03B68DB6804333B620F
:100F9C0024E03B68DB6808333B621FE03B68DB689E
:100FAC000C333B621AE03B689B68002B02D1042394
:100FBC003B6213E03B689B68012B05D108233B6225
:100FCC007B68FA691A6109E008233B627B68FA695D
:100FDC005A6103E000233B6200E000BFBB69FF2BBA
:100FEC0001D87B6801E07B6804337B61BB69FF2B14
:100FFC0002D87B6A9B0002E07B6A083B9B003B614A
:10100C007B691A680F213B6901FA03F3DB431A4031
:10101C00396A3B6901FA03F31A437B691A603B682E
:10102C005B6803F08053002B00F0B1804D4B9B6943
:10103C004C4A43F0010393614A4B9B6903F0010353
:10104C00BB60BB68484A7B6A9B08023352F823306A
:10105C00FB607B6A03F003039B000F2202FA03F38D
:10106C00DB43FA681340FB607B68404A934213D021
:10107C007B683F4A93420DD07B683E4A934207D02F
:10108C007B683D4A934201D1032306E0042304E02C
:10109C00022302E0012300E000237A6A02F003023B
:1010AC0092009340FA681343FB602F497B6A9B08BC
:1010BC000233FA6841F823203B685B6803F4801321
:1010CC00002B06D02D4B9A682C49BB6913438B60BF
:1010DC0006E02A4B9A68BB69DB43284913408B60B6
:1010EC003B685B6803F40013002B06D0234BDA68D3
:1010FC002249BB691343CB6006E0204BDA68BB691D
:10110C00DB431E491340CB603B685B6803F4003340
:10111C00002B06D0194B5A681849BB6913434B6016
:10112C0006E0164B5A68BB69DB43144913404B600D
:10113C003B685B6803F48033002B21D00F4B1A689B
:10114C000E49BB6913430B6021E000BF0000321055
:10115C0000003110000022100000211000001210BD
:10116C000000111000100240000001400008014076
:10117C00000C01400010014000140140000401402B
:10118C000B4B1A68BB69DB43094913400B607B6A44
:10119C0001337B623B681A687B6A22FA03F3002BEB
:1011AC007FF48EAE00BF00BF2C37BD4680BC7047AD
:1011BC000004014080B483B000AF78600B467B80A4
:1011CC0013467B707B78002B03D07A887B681A617E
:1011DC0003E07B881A047B681A6100BF0C37BD469C
:1011EC0080BC704780B586B000AF78607B68002B00
:1011FC0001D1012372E27B681B6803F00103002B11
:10120C0000F08780924B5B6803F00C03042B0CD02E
:10121C008F4B5B6803F00C03082B12D18C4B5B6873
:10122C0003F48033B3F5803F0BD1894B1B6803F477
:10123C000033002B6CD07B685B68002B68D10123DA
:10124C004CE27B685B68B3F5803F06D1804B1B6832
:10125C007F4A43F4803313602EE07B685B68002B7D
:10126C000CD17B4B1B687A4A23F480331360784B88
:10127C001B68774A23F4802313601DE07B685B684E
:10128C00B3F5A02F0CD1724B1B68714A43F4802329
:10129C0013606F4B1B686E4A43F4803313600BE092
:1012AC006B4B1B686A4A23F480331360684B1B68D2
:1012BC00674A23F4802313607B685B68002B13D090
:1012CC00FFF7D0FA386108E0FFF7CCFA02463B6929
:1012DC00D31A642B01D9032300E25D4B1B6803F482
:1012EC000033002BF0D014E0FFF7BCFA386108E0B3
:1012FC00FFF7B8FA02463B69D31A642B01D90323D2
:10130C00ECE1534B1B6803F40033002BF0D100E0ED
:10131C0000BF7B681B6803F00203002B63D04C4BAF
:10132C005B6803F00C03002B0BD0494B5B6803F09C
:10133C000C03082B1CD1464B5B6803F48033002B49
:10134C0016D1434B1B6803F00203002B05D07B68BE
:10135C001B69012B01D00123C0E13D4B1B6823F01D
:10136C00F8027B685B69DB00394913430B603AE098
:10137C007B681B69002B20D0364B01221A60FFF7CB
:10138C0071FA386108E0FFF76DFA02463B69D31A2F
:10139C00022B01D90323A1E12D4B1B6803F002039F
:1013AC00002BF0D02A4B1B6823F0F8027B685B699A
:1013BC00DB00274913430B6015E0264B00221A6013
:1013CC00FFF750FA386108E0FFF74CFA02463B6928
:1013DC00D31A022B01D9032380E11D4B1B6803F0A8
:1013EC000203002BF0D17B681B6803F00803002B71
:1013FC003AD07B689B69002B19D0174B01221A60DD
:10140C00FFF730FA386108E0FFF72CFA02463B6927
:10141C00D31A022B01D9032360E10D4B5B6A03F055
:10142C000203002BF0D0012000F0CEFA1CE00A4B96
:10143C0000221A60FFF716FA38610FE0FFF712FA74
:10144C0002463B69D31A022B08D9032346E100BF9D
:10145C00001002400000424280044242924B5B6A00
:10146C0003F00203002BE9D17B681B6803F0040333
:10147C00002B00F0A6800023FB758B4BDB6903F07F
:10148C008053002B0DD1884BDB69874A43F0805386
:10149C00D361854BDB6903F08053BB60BB680123D0
:1014AC00FB75824B1B6803F48073002B18D17F4BA8
:1014BC001B687E4A43F480731360FFF7D3F93861DD
:1014CC0008E0FFF7CFF902463B69D31A642B01D928
:1014DC00032303E1754B1B6803F48073002BF0D0DE
:1014EC007B68DB68012B06D16F4B1B6A6E4A43F09D
:1014FC00010313622DE07B68DB68002B0CD16A4B77
:10150C001B6A694A23F001031362674B1B6A664A24
:10151C0023F0040313621CE07B68DB68052B0CD101
:10152C00614B1B6A604A43F0040313625E4B1B6AF7
:10153C005D4A43F0010313620BE05B4B1B6A5A4A92
:10154C0023F001031362584B1B6A574A23F0040320
:10155C0013627B68DB68002B15D0FFF783F93861C9
:10156C000AE0FFF77FF902463B69D31A41F2883251
:10157C00934201D90323B1E04B4B1B6A03F00203E6
:10158C00002BEED014E0FFF76DF938610AE0FFF79D
:10159C0069F902463B69D31A41F28832934201D968
:1015AC0003239BE0404B1B6A03F00203002BEED19C
:1015BC00FB7D012B05D13C4BDB693B4A23F080536F
:1015CC00D3617B68DB69002B00F08780364B5B684E
:1015DC0003F00C03082B61D07B68DB69022B46D12E
:1015EC00334B00221A60FFF73DF9386108E0FFF732
:1015FC0039F902463B69D31A022B01D903236DE05A
:10160C00294B1B6803F00073002BF0D17B681B6A1D
:10161C00B3F5803F08D1244B5B6823F400327B6820
:10162C009B68214913434B601F4B5B6823F4741276
:10163C007B68196A7B685B6A0B431B4913434B60DD
:10164C001B4B01221A60FFF70DF9386108E0FFF718
:10165C0009F902463B69D31A022B01D903233DE059
:10166C00114B1B6803F00073002BF0D035E0104BCE
:10167C0000221A60FFF7F6F8386108E0FFF7F2F87D
:10168C0002463B69D31A022B01D9032326E0064BF1
:10169C001B6803F00073002BF0D11EE07B68DB6944
:1016AC00012B07D1012319E000100240007000400B
:1016BC00600042420B4B5B68FB60FB6803F48032BA
:1016CC007B681B6A9A4206D1FB6803F470127B6834
:1016DC005B6A9A4201D0012300E0002318461837B8
:1016EC00BD4680BD0010024080B584B000AF78606C
:1016FC0039607B68002B01D10123D0E06A4B1B6859
:10170C0003F007033A689A4210D9674B1B6823F021
:10171C00070265493B6813430B60634B1B6803F07E
:10172C0007033A689A4201D00123B8E07B681B6832
:10173C0003F00203002B20D07B681B6803F004032A
:10174C00002B05D0594B5B68584A43F4E063536057
:10175C007B681B6803F00803002B05D0534B5B68B8
:10176C00524A43F460535360504B5B6823F0F002D1
:10177C007B689B684D4913434B607B681B6803F087
:10178C000103002B40D07B685B68012B07D1474BD2
:10179C001B6803F40033002B15D101237FE07B6819
:1017AC005B68022B07D1414B1B6803F00073002BC5
:1017BC0009D1012373E03D4B1B6803F00203002B9E
:1017CC0001D101236BE0394B5B6823F003027B688A
:1017DC005B68364913434B60FFF744F8F8600AE046
:1017EC00FFF740F80246FB68D31A41F28832934265
:1017FC0001D9032353E02D4B5B6803F00C027B688B
:10180C005B689B009A42EBD1274B1B6803F00703E4
:10181C003A689A4210D2244B1B6823F007022249E3
:10182C003B6813430B60204B1B6803F007033A68BB
:10183C009A4201D0012332E07B681B6803F0040359
:10184C00002B08D0194B5B6823F4E0627B68DB68E3
:10185C00164913434B607B681B6803F00803002B8D
:10186C0009D0124B5B6823F460527B681B69DB0068
:10187C000E4913434B6000F021F802460B4B5B689A
:10188C001B0903F00F030A49CB5C22FA03F3094A44
:10189C001360094B1B681846FEF7A2FF002318467D
:1018AC001037BD4680BD00BF002002400010024032
:1018BC00B01D0008000000200400002080B487B098
:1018CC0000AF0023FB600023BB6000237B6100237F
:1018DC007B6000233B611E4B5B68FB60FB6803F085
:1018EC000C03042B02D0082B03D027E0194B3B61CF
:1018FC0027E0FB689B0C03F00F03174AD35C7B605B
:10190C00FB6803F48033002B10D0114B5B685B0C2D
:10191C0003F00103114AD35CBB607B680D4A03FBE7
:10192C0002F2BB68B2FBF3F37B6104E07B680C4A08
:10193C0002FB03F37B617B693B6102E0054B3B617E
:10194C0000BF3B6918461C37BD4680BC704700BFC2
:10195C000010024000127A00C81D0008D81D0008B3
:10196C0000093D0080B400AF024B1B681846BD4611
:10197C0080BC70470000002080B500AFFFF7F2FF7D
:10198C000246054B5B681B0A03F007030349CB5C5B
:10199C0022FA03F3184680BD00100240C01D000857
:1019AC0080B500AFFFF7DEFF0246054B5B68DB0A34
:1019BC0003F007030349CB5C22FA03F3184680BDFE
:1019CC0000100240C01D000880B485B000AF7860E4
:1019DC000A4B1B680A4AA2FB03235B0A7A6802FBC8
:1019EC0003F3FB6000BFFB685A1EFA60002BF9D1B1
:1019FC0000BF00BF1437BD4680BC704700000020FC
:101A0C00D34D621080B586B000AF786000233B6187
:101A1C000023FB607B681B6803F00103002B7DD067
:101A2C000023FB754F4BDB6903F08053002B0DD16A
:101A3C004C4BDB694B4A43F08053D361494BDB6918
:101A4C0003F08053BB60BB680123FB75464B1B68DE
:101A5C0003F48073002B18D1434B1B68424A43F4A8
:101A6C0080731360FEF7FEFE386108E0FEF7FAFEA5
:101A7C0002463B69D31A642B01D903236DE03A4B20
:101A8C001B6803F48073002BF0D0364B1B6A03F4F5
:101A9C004073FB60FB68002B2ED07B685B6803F403
:101AAC004073FA689A4227D02E4B1B6A23F440737A
:101ABC00FB602E4B01221A602C4B00221A60294A23
:101ACC00FB681362FB6803F00103002B14D0FEF7D4
:101ADC00C9FE38610AE0FEF7C5FE02463B69D31A1F
:101AEC0041F28832934201D9032336E01D4B1B6A25
:101AFC0003F00203002BEED01A4B1B6A23F4407246
:101B0C007B685B68174913430B62FB7D012B05D186
:101B1C00144BDB69134A23F08053D3617B681B6839
:101B2C0003F00203002B08D00E4B5B6823F44042F9
:101B3C007B689B680B4913434B607B681B6803F005
:101B4C001003002B08D0074B5B6823F480027B68E2
:101B5C00DB68044913434B60002318461837BD4615
:101B6C0080BD00BF001002400070004040044242A3
:101B7C0080B582B000AF78607B68002B01D1012367
:101B8C0042E07B6893F84130DBB2002B06D17B68D6
:101B9C00002283F840207868FEF76CFD7B682422D5
:101BAC0083F841207B681B68DA687B681B6822F429
:101BBC000052DA60786800F02BF87B681B681A69B1
:101BCC007B681B6822F490421A617B681B685A6917
:101BDC007B681B6822F02A025A617B681B68DA68F2
:101BEC007B681B6842F40052DA607B6800225A64FE
:101BFC007B68202283F841207B68202283F84220D6
:101C0C007B6800225A63002318460837BD4680BD06
:101C1C0080B584B000AF78607B681B681B6923F4C7
:101C2C0040517B68DA687B681B680A431A617B68E1
:101C3C009A687B681B691A437B685B691343BB60BA
:101C4C007B681B68DB6823F4B05323F00C037A68C1
:101C5C001268B9680B43D3607B681B685B6923F41B
:101C6C0040717B689A697B681B680A435A617B6880
:101C7C001B682C4A934203D1FFF792FEF86002E0F6
:101C8C00FFF77AFEF860FA6813469B0013449A003B
:101C9C001A447B685B689B00B2FBF3F3224AA2FBFD
:101CAC0003235B091901FA6813469B0013449A003D
:101CBC001A447B685B689B00B2FBF3F21A4BA3FBE4
:101CCC0002035B09642000FB03F3D31A1B013233BC
:101CDC00154AA2FB03235B0903F0F0031944FA68CD
:101CEC0013469B0013449A001A447B685B689B0064
:101CFC00B2FBF3F20C4BA3FB02035B09642000FB69
:101D0C0003F3D31A1B013233074AA2FB03235B09EB
:101D1C0003F00F027B681B680A449A6000BF1037FF
:101D2C00BD4680BD003801401F85EB51034602447F
:101D3C00934200D1704703F8011BF9E770B50026F8
:101D4C000C4D0D4C641BA410A64209D100F01AF8DE
:101D5C0000260A4D0A4C641BA410A64205D170BD86
:101D6C0055F8043B98470136EEE755F8043B984785
:101D7C000136F2E7DC1D0008DC1D0008DC1D000844
:101D8C00E01D0008F8B500BFF8BC08BC9E467047C3
:0C1D9C00F8B500BFF8BC08BC9E467047BC
:101DA80068656C6C6C6F00000000000000000000AB
:101DB80001020304060708090000000001020304E9
:101DC80002030405060708090A0B0C0D0E0F101074
:041DD8000102000004
:041DDC0031010008C9
:041DE0000D010008E9
:0C1DE4000024F4001000000001000000CA
:040000050800077573
:00000001FF
